:1000000012C02CC02BC02AC029C028C027C026C0BF
:1000100025C024C023C022C021C020C01FC01EC0D4
:100020001DC01CC01BC011241FBECFE5D4E0DEBF25
:10003000CDBF10E0A0E6B0E0E4EDF4E002C0059032
:100040000D92AC36B107D9F710E0ACE6B0E001C0D4
:100050001D92A037B107E1F7F2D13AC2D1CFE091BA
:100060006E00F0916F0082AB84EC99E00197F1F79C
:10007000E0916E00F0916F0082A98E7F82AB2AEF33
:1000800030E0C9010197F1F7E0916E00F0916F0047
:1000900082A98D7F82ABC9010197F1F7E0916E00D3
:1000A000F0916F0082A9846082ABC9010197F1F7DA
:1000B000E0916E00F0916F0082A98B7F82AB089572
:1000C0001F93182F807FCBDF812F8295807FC7DF22
:1000D0001F910895E0916E00F0916F0082AB2AEFBE
:1000E00030E0C9010197F1F7E0916E00F0916F00E7
:1000F00082A9816082ABC9010197F1F7E0916E009E
:10010000F0916F0082A98D7F82ABC9010197F1F751
:10011000E0916E00F0916F0082A9846082ABC9010A
:100120000197F1F7E0916E00F0916F0082A98B7F4B
:1001300082AB08951F93182F807FCCDF812F82958B
:10014000807FC8DF1F910895CF93DF93EC018FE08C
:1001500090E08C1B9D0B90936D0080936C00613040
:10016000710529F480ECACDF9E01206C02C09E0179
:100170002068822FA5DFDF91CF9108950F931F9301
:10018000CF93DF938C01C0E0D0E016C0C031D10521
:100190000CF4D0DF80916C0090916D00C817D907E6
:1001A00011F480EC8DDFC031D1051CF0F8018081A5
:1001B000C1DF21960F5F1F4FF8018081882331F73F
:1001C000DF91CF911F910F910895CF92DF92EF921F
:1001D000FF921F936B017C016115710581059105EB
:1001E000E9F480E3A7DF1AC0C701B6012AE030E0D6
:1001F00040E050E030D1162FC701B6012AE030E0D0
:1002000040E050E028D1C901DA016C017D0184E0B1
:1002100057DF812F805D8EDF86E052DFC114D1046D
:10022000E104F10409F71F91FF90EF90DF90CF9068
:10023000089581E045DF88EB9BE029E130E0F9019A
:100240003197F1F70197D9F708950F931F9380E441
:1002500037DF08EA11E6C8010197F1F780E06ADFAD
:1002600080E068DF81E066DF83E064DF87E062DFF3
:100270008FE060DF8FE15EDF80E05CDF88E420DF1D
:10028000C8010197F1F780E055DF84E053DF8EE08D
:1002900051DF8EE04FDF8FE14DDF8FE14BDF88E0F4
:1002A00049DF80E047DF80E50BDFC8010197F1F708
:1002B00080E040DF84E03EDF8EE03CDF8EE03ADF2E
:1002C0008FE138DF8FE136DF81E034DF80E032DF3D
:1002D00088E5F6DEC8010197F1F780E02BDF84E0C6
:1002E00029DF8EE027DF8EE025DF8FE123DF8FE13E
:1002F00021DF80E11FDF80E01DDF80E6E1DEC80155
:100300000197F1F784E016DF8EE014DF8FE112DF52
:1003100081E110DF81E10EDF8FE10CDF8FE10ADF89
:100320008FE108DF88E6CCDEC8010197F1F781E0B4
:1003300001DF81E0FFDE8FE0FDDE8FE0FBDE8FE09E
:10034000F9DE8FE0F7DE8FE0F5DE8FE0F3DE1F9160
:100350000F910895843429F410926F0010926E006A
:1003600012C0833419F483E090E009C0823419F498
:1003700086E090E004C0813431F489E090E090930D
:100380006F0080936E00E0916E00F0916F008FEF30
:1003900081AB88EA91E60197F1F781E091DE80E593
:1003A00093EC0197F1F782E08BDE88E289DE88E842
:1003B00093E10197F1F786E083DE8CE081DE45DF93
:1003C0000895CF93DF93EC018130910519F480E01B
:1003D000B1DE11C08230910519F481E0ABDE10C0AE
:1003E0008330910519F482E0A5DE0FC084309105B9
:1003F00011F483E00DC0C530D10511F484E008C0CC
:10040000C630D10511F485E003C0279711F486E0CA
:1004100091DEDF91CF9108950F931F9381E08ADEE3
:1004200004ED10E3C8010197F1F782E083DEC80113
:100430000197F1F783E07EDE1F910F91089584E428
:1004400089DF80E090E060E070E07EDE80E690E0B2
:1004500095DEEFDEF6CF97FB092E05260ED057FD71
:1004600004D014D00AD0001C38F450954095309533
:1004700021953F4F4F4F5F4F0895F6F79095809528
:10048000709561957F4F8F4F9F4F0895A1E21A2E6F
:10049000AA1BBB1BFD010DC0AA1FBB1FEE1FFF1F28
:1004A000A217B307E407F50720F0A21BB30BE40B78
:1004B000F50B661F771F881F991F1A9469F76095BF
:1004C0007095809590959B01AC01BD01CF01089579
:0404D000F894FFCFCE
:0C04D40020756C74696D61746520200057
:00000001FF
