:100000000C942A000C9434000C9434000C943400AA
:100010000C9434000C9434000C9434000C94340090
:100020000C9434000C9434000C9434000C94340080
:100030000C9434000C9434000C9434000C94340070
:100040000C9434000C9434000C9434000C94340060
:100050000C94340011241FBECFE5D4E0DEBFCDBF29
:100060000E9436000C944A000C9400001ABA8FEFDC
:1000700081BB84BB82BB3AEA25E589B390E08370FB
:1000800090708330910511F435BBF7CF892BA9F718
:0800900025BBF3CFF894FFCF6C
:00000001FF
