:100000000C942A000C943C000C943C000C943C0092
:100010000C943C000C943C000C943C000C943C0070
:100020000C943C000C943C000C943C000C943C0060
:100030000C943C000C943C000C943C000C943C0050
:100040000C943C000C943C000C943C000C943C0040
:100050000C943C0011241FBECFE5D4E0DEBFCDBF21
:1000600010E0A0E6B0E001C01D92A438B107E1F7AE
:100070000E9452000C94F3000C94000080917400D4
:100080009091750001969093750080937400089587
:10009000809166009091670001969093670080932D
:1000A000660008954F925F926F927F928F929F9217
:1000B000AF92BF92CF92DF92EF92FF920F931F9376
:1000C000CF93DF931ABA8FEF84BB81BB4090680057
:1000D0005090690060908200709083006091600091
:1000E00070916100E0916600F0916700A09174004A
:1000F000B0917500C0917800D091790000916200B4
:1001000010916300E0906400F0906500C090800062
:10011000D0908100A0906C00B0906D00809076002F
:100120009090770040917E0050917F0020916A006E
:1001300030916B0080917A0090917B0028173907ED
:10014000C1F41AC089B3482F50E047705070611550
:10015000710519F00AC025BB01C020E889B390E001
:10016000877090700197D1F7F6CF6130710509F46F
:10017000FFCF4614570431F7F0936700E093660011
:10018000B0937500A0937400D0937900C093780069
:100190001093630000936200F0926500E0926400A7
:1001A000D0928100C0928000B0926D00A0926C004D
:1001B000909277008092760050937F0040937E006B
:1001C00080E090E0DF91CF911F910F91FF90EF9031
:1001D000DF90CF90BF90AF909F908F907F906F9067
:0A01E0005F904F900895F894FFCF50
:00000001FF
