:100000000C942A000C943C000C943C000C943C0092
:100010000C943C000C943C000C943C000C943C0070
:100020000C943C000C943C000C943C000C943C0060
:100030000C943C000C943C000C943C000C943C0050
:100040000C943C000C943C000C943C000C943C0040
:100050000C943C0011241FBECFE5D4E0DEBFCDBF21
:1000600010E0A0E6B0E001C01D92A237B107E1F7B1
:100070000E943E000C944D000C9400001ABA8FEFC1
:1000800084BB81BB89B390E08770907090936D00C2
:0E00900080936C0080E090E00895F894FFCF1C
:00000001FF
