:1000000012C019C018C017C016C015C014C013C044
:1000100012C011C010C00FC00EC00DC00CC00BC06C
:100020000AC009C008C011241FBECFE5D4E0DEBF5E
:10003000CDBF02D05FC0E4CF8FEF84BB40E229E1A7
:1000400030E068EA71E6A4ECB9E045BB8FEF9FEFC2
:10005000F9013197F1F70197D9F715BA8FEF9FEFB3
:10006000F9013197F1F70197D9F745BB8FEF9FEF72
:10007000F9013197F1F70197D9F715BA8FEF9FEF93
:10008000F9013197F1F70197D9F745BB8FEF9FEF52
:10009000F9013197F1F70197D9F715BA80E197E2A5
:1000A000F9013197F1F70197D9F745BBCB010197DA
:1000B000F1F715BACD010197F1F745BBCB010197D7
:1000C000F1F715BA80E197E2F9013197F1F701975D
:1000D000D9F715BA8FEF9FEFF9013197F1F7019733
:1000E000D9F715BA8FEF9FEFF9013197F1F7019723
:0800F000D9F7ABCFF894FFCF64
:00000001FF
