:100000000C942A000C943F000C943F000C943F0089
:100010000C943F000C943F000C943F000C943F0064
:100020000C943F000C943F000C943F000C943F0054
:100030000C943F000C943F000C943F000C943F0044
:100040000C943F000C943F000C943F000C943F0034
:100050000C943F0011241FBECFE5D4E0DEBFCDBF1E
:1000600010E0A0E6B0E0E2E9F0E002C005900D92F9
:10007000A236B107D9F70E9441000C9447000C94B6
:1000800000008FEF81BB8091600082BBFECFF894AF
:02009000FFCFA0
:02009200FF006D
:00000001FF
